:020000040800F2
:10000000280900200D020008E5080008E70800089C
:10001000EB080008EF080008F308000800000000E3
:10002000000000000000000000000000F7080008C9
:10003000F908000800000000FB080008FD0800089F
:1000400027020008270200082702000827020008EC
:1000500027020008270200081D03000857030008B4
:1000600091030008CB0300080504000827020008DC
:1000700027020008270200082702000827020008BC
:1000800027020008270200082702000827020008AC
:10009000270200082702000827020008270200089C
:1000A000270200082702000827020008270200088C
:1000B000270200082702000827020008270200087C
:1000C000270200082702000827020008270200086C
:1000D000270200082702000827020008270200085C
:1000E000270200082702000827020008270200084C
:1000F000270200082702000827020008270200083C
:10010000270200082702000827020008270200082B
:10011000270200082702000827020008270200081B
:10012000270200082702000827020008270200080B
:1001300000F002F800F05AF80AA090E8000C82449F
:100140008344AAF10107DA4501D100F04FF8AFF27C
:10015000090EBAE80F0013F0010F18BFFB1A43F0A5
:100160000103184708190000281900000A444FF03D
:10017000000C10F8013B13F0070408BF10F8014B06
:100180001D1108BF10F8015B641E05D010F8016B4B
:10019000641E01F8016BF9D113F0080F1EBF10F8AF
:1001A000014BAD1C0C1B09D16D1E58BF01F801CBD2
:1001B000FAD505E014F8016B01F8016B6D1EF9D555
:1001C0009142D6D37047000000230024002500266A
:1001D000103A28BF78C1FBD8520728BF30C148BFAA
:1001E0000B6070471FB51FBD10B510BD01F007FCB7
:1001F0001146FFF7F7FF00F0A5F901F025FC03B465
:10020000FFF7F2FF03BC01F029FC0000094880471A
:1002100009480047FEE7FEE7FEE7FEE7FEE7FEE7E8
:10022000FEE7FEE7FEE7FEE704480549054A064B00
:1002300070470000E1090008310100082803002090
:1002400028090020280500202805002030B50A468E
:100250000378012103E0455C4C1E0555491C914281
:10026000F9DB541E035530BD10B50A46541E035D1C
:10027000114603E04C1E045D4454491E0029F9DC7C
:10028000037010BD70B504460D460020FE4908609D
:100290002146FE4801F09AF900BF8021FB4801F099
:1002A000E8F906461021FA4800F007FE8642F4D02D
:1002B000F64801F08DF90A2001F053FA2946F34877
:1002C00001F084F900BF8021F04801F0D2F9064620
:1002D0001021EF4800F0F1FD8642F4D0EB4801F028
:1002E00077F90A2001F03DFA0120E749086070BD66
:1002F00010B500210920FFF7C5FF03210A20FFF7F1
:10030000C1FF07210B20FFF7BDFF01210C20FFF7E4
:10031000B9FF00210F20FFF7B5FF10BD10B5012078
:1003200000F0C0FC04461021D94800F0C6FD84420C
:100330000DD0D8480078D8490978084307D0012063
:10034000D64908700020D4490870D24908700120AD
:1003500000F0B9FC10BD10B5022000F0A3FC04466B
:100360001021CB4800F0A9FD84420DD0C948007887
:10037000C9490978084307D00120C94908700020FD
:10038000C5490870C3490870022000F09CFC10BDEC
:1003900010B5042000F086FC04461021BC4800F093
:1003A0008CFD84420DD0BD480078BD4909780843D2
:1003B00007D00120B74908700020B9490870B74933
:1003C0000870042000F07FFC10BD10B5082000F07C
:1003D00069FC04461021AE4800F06FFD84420DD048
:1003E000AE480078AE490978084307D00120AA49F1
:1003F00008700020AA490870A8490870082000F079
:1004000062FC10BD10B5102000F04CFC0446102119
:100410009F4800F052FD844207D0A248007808B9F6
:10042000012000E000209F490870102000F04BFCE4
:1004300010BD30B5002445E09848007828B19A49AD
:1004400001EBC4000821FFF701FF9548007828B1AF
:10045000954901EBC4000821FFF706FF01252DE0B7
:100460008C48007890B1904800EBC401681E085C8D
:1004700041008D4800EBC402681E105C41EAE010A8
:10048000C1B2894800EBC402681E1154824800784A
:1004900090B1854800EBC401681E085C4110824899
:1004A00000EBC402681E105C41EAC010C1B27E4875
:1004B00000EBC402681E1154681CC5B2092DCFDBC5
:1004C000601CC4B2012CB7DB30BD70B506460124F8
:1004D00022E0002516E0744800EBC501601E085CB0
:1004E000611E724A515C0843611E5054601E1146E1
:1004F000085C611E6E4A515C0843611E6B4A505491
:10050000681CC5B2B542E6DB601E684A115C204635
:10051000FFF7B8FE601CC4B2092CDADB70BD0CB565
:1005200064A103C9CDE90001614864490978405CD0
:10053000634A12781DF8021008435D495F4A127839
:1005400088540CBD2DE9FF5F02200390032501F0C4
:10055000E5F901F023F901F0D9F801F0C1F84CF206
:10056000503001F0FEF8FFF7C3FE44E14D4800783B
:10057000002873D053490878C11700EB5171C91096
:10058000A0EBC1014D4A11704F490878C11700EB2B
:100590005171C910A0EBC101494A11704948007856
:1005A000401E4849087048480078401E4649087077
:1005B00044480078002802DC642042490870424820
:1005C0000078002802DC7D203F4908703F48007811
:1005D00020B1FFF7A4FF00203C490870002708E085
:1005E0003348C05D3049C95D884200D003E0781CC3
:1005F000C7B2082FF4DB00BF082F2CD17901344893
:1006000000F068FCC0F10100C0B202467901009020
:100610002F4800F070FC42F2107001F0A2F879014E
:100620002B4800F057FCC0F10100C0B2024679012E
:100630000090274800F05FFC0120244908702549FC
:1006400008706D1C002404E0002019490855601C46
:10065000C4B2082CF8DB681EC6B210E0BFE000246C
:1006600009E0701E104901EBC000005D01EBC601FE
:100670000855601CC4B2082CF3DB701EC6B2002EF5
:10068000EDDCFFF7D6FE27E08C012142003001406F
:100690000018014003000020040000200100002099
:1006A00002000020050000209A0000200A0000201F
:1006B0001200002001020408102040809A0200204D
:1006C0009B020020060000200700002008000020F8
:1006D000000C0140090000202846FFF7F6FE744890
:1006E00001F03FF82021734800F0F4FBC0F1010055
:1006F000C0B20246202100906E4800F0FCFB6E481C
:100700000078E0B36D480078D0B16A1E6C4B03EB03
:10071000C202D17908200AE06A1E694B03EBC203CA
:10072000421E9A5C664B03EBC5031A54401E002818
:10073000F2DC634A02F8351000225F4B1A7000BFEA
:1007400060480078D8B16A1E5D4B13F83210012062
:100750000BE06A1E5A4B03EBC202135C584A02EBD1
:10076000C50C421E0CF80230401C0828F1DB544A2C
:1007700002EBC502D17100224F4B1A7000BF042D4D
:1007800023DD04241EE04FF000080EE04C4810F872
:1007900008004B4901EBC40111F80810884200D051
:1007A00006E008F1010000F0FF08B8F1080FEDDBEA
:1007B00000BFB8F1080F03D100204349087003E0DF
:1007C000601CC4B2AC42DEDB00BF002404E00020A9
:1007D0003E490855601CC4B2082C0CDAF7E7012426
:1007E00007E0601E3A4A115C2046FFF74BFD601C93
:1007F000C4B2092CF5DB3448007800287FF4B6AE8B
:1008000025E04FF48071334800F064FBC0F1010033
:10081000C0B202464FF4807100902E4800F06BFB8E
:10082000002412E0012609E02B4800EBC402701EF0
:10083000115C3046FFF726FD701CC6B2092EF3DBB3
:10084000264800F08EFF601CC4B2052CEADB03983A
:10085000411EC9B203910028D3D1A5F103090A2092
:1008600099FBF0F100FB119B99FBF0FA002418E0D2
:100870001B4800EBCB00005D194901EBCA01095D83
:1008800040EA2110164901EBCA01095D40EA011056
:1008900001A9085501A8015D2046FFF7F3FC601C83
:1008A000C4B2082CE4DB002004B0BDE8F09F0000D7
:1008B000400D030000180140090000200100002045
:1008C0009A00002002000020000000200A00002002
:1008D0001A000020000C014072000020F0490200C4
:1008E00022000020704700BFFEE700BFFEE700BF08
:1008F000FEE700BFFEE770477047704710B500F095
:100900003AFF10BD0CB50020019000906B480068C4
:1009100040F480306949086000BF6848006800F40E
:10092000003000900198401C0190009818B901987F
:10093000B0F5A06FF1D16148006810F4003F02D01B
:100940000120009001E0002000900098012842D191
:100950005B48006840F0100059490860084600688C
:1009600020F0030008600846006840F002000860BC
:100970005248406851494860084640684860084607
:10098000406840F4806048600846406820F47C106D
:1009900048600846406840F4E8104860084600682F
:1009A00040F08070086000BF4448006810F0007F8D
:1009B000FAD04248406820F00300404948600846A9
:1009C000406840F00200486000BF3C48406800F0CA
:1009D0000C000828F9D10CBD10B5FFF793FF10BD2E
:1009E00010B53648006840F00100344908600846F8
:1009F0004068344908403149486008460068324937
:100A000008402E4908600846006820F480200860ED
:100A10000846406820F4FE0048604FF41F008860DC
:100A2000FFF7DAFF4FF000602849086010BD10B5ED
:100A3000002100200022214B5B6803F00C0121B152
:100A4000042906D0082928D107E0214B214C236036
:100A500027E01F4B1F4C236023E0184B5B6803F417
:100A60007010164B5B6803F48032022303EB904056
:100A700022B9194B4343174C23600DE00F4B5B68C1
:100A800013F4003F04D0144B4343124C236003E0A3
:100A90000F4B43430F4C236003E00D4B0D4C236081
:100AA00000BF00BF054B5B68C3F303130B4CE15C55
:100AB000084B1B68CB40074C236010BD0010024060
:100AC000002002400000FFF8FFFFF6FE08ED00E006
:100AD00000127A009C02002000093D00A0020020C4
:100AE00031490143314A1160704770B5002100233C
:100AF0000F22C4780CB32D4C246804F4E064C4F5D0
:100B0000E064210AC1F10403CA40447804FA03F105
:100B10008478144021430901254C0678A1550478B6
:100B200004F01F050124AC4005786D114FF0E0265C
:100B300006EB8505C5F8004109E0047804F01F05BF
:100B40000124AC401B4D0678761145F8264070BD57
:100B5000194A0A400243154B1B1F1A60704739B1EE
:100B6000124A121D12680243104B1B1D1A6006E048
:100B70000E4A121D126882430C4B1B1D1A607047EF
:100B8000042808D14FF0E021096941F004014FF039
:100B9000E022116107E04FF0E021096921F0040132
:100BA0004FF0E022116170470000FA050CED00E003
:100BB00000E400E080E100E080FFFF1F00204449E6
:100BC0000860091D0860091D0860091D086041488A
:100BD0003F4914310860704700213D498279002A5D
:100BE0003AD00A46126803689A430B461A600A1DF7
:100BF000126803689A430B1D1A60027911440A684F
:100C000003681A430A60324A0832126803689A433A
:100C10002F4B08331A601A1D126803689A432C4B35
:100C20000C331A604279102A0ED11A1F1268036819
:100C30001A43274B08331A601A1D126803681A43B7
:100C4000234B0C331A600DE02149427911440A68A4
:100C500003681A430A6005E0027911440A680368D0
:100C60009A430A6070470021016001710C214171B3
:100C70000021817170471649103109680143144AF7
:100C800010321160704701460020114A1432126878
:100C90000A4201D0012000E0002070470C491431C5
:100CA00008607047014600200022094B1B6803EAD8
:100CB0000102074B14331B680B4202D00AB101201A
:100CC00000E00020704702491431086070470000BE
:100CD00000040140FFFF0F0010B50446CA488442DB
:100CE00008D10121042000F027FB0021042000F09E
:100CF00023FB46E0C548844208D10121082000F0CA
:100D00001BFB0021082000F017FB3AE0C04884429A
:100D100008D10121102000F00FFB0021102000F06D
:100D20000BFB2EE0BB48844208D10121202000F0BB
:100D300003FB0021202000F0FFFA22E0B6488442A5
:100D400008D10121402000F0F7FA0021402000F0F6
:100D5000F3FA16E0B148844208D10121802000F066
:100D6000EBFA0021802000F0E7FA0AE0AC48844268
:100D700007D10121801500F0DFFA0021A01500F055
:100D8000DBFA10BD10B50121084600F0D5FA0021AC
:100D9000012000F0D1FA10BD2DE9F04102460025F6
:100DA0000026002000230024002791F803C00CF047
:100DB0000F0591F803C01CF0100F03D091F802C08A
:100DC0004CEA050591F800C0BCF1000F31D0146861
:100DD00000202BE04FF0010C0CFA00F3B1F800C03A
:100DE0000CEA03069E4220D183004FF00F0C0CFA50
:100DF00003F7BC4305FA03FC4CEA040491F803C072
:100E0000BCF1280F06D14FF0010C0CFA00FCC2F81F
:100E100014C00AE091F803C0BCF1480F05D14FF0AF
:100E2000010C0CFA00FCC2F810C0401C0828D1D3F9
:100E30001460B1F800C0BCF1FF0F34DD546800202D
:100E40002EE000F1080C4FF0010808FA0CF3B1F89D
:100E500000C00CEA03069E4221D183004FF00F0C24
:100E60000CFA03F7BC4305FA03FC4CEA040491F8BE
:100E700003C0BCF1280F05D100F1080C08FA0CF8EA
:100E8000C2F8148091F803C0BCF1480F07D100F1FB
:100E9000080C4FF0010808FA0CF8C2F81080401C4A
:100EA0000828CED35460BDE8F0814FF6FF71018071
:100EB000022181700421C1707047024600209368AE
:100EC0000B4201D0012000E00020704701468868F5
:100ED00080B2704702460020D3680B4201D0012047
:100EE00000E0002070470146C86880B27047016189
:100EF0007047416170470AB1016100E0416170478C
:100F0000C16070474FF480320A438261816182611F
:100F100082698269704702460020424B18684FF68A
:100F20008073184040EA021008433E4B1860704737
:100F30003D49C8617047F0B50A46002300240021EE
:100F4000002500F00046B6F1004F02D1354EF169A0
:100F500001E0344E7168C0F3034583B200F44016DB
:100F6000B6F5401F08D121F070612E4E766826F04C
:100F700070662C4F7E6012E000F48016B6F5801F7C
:100F800006D1032606FA05F4A14341F0706106E09C
:100F9000460D360103FA06F6B14341F0706122B105
:100FA000460D360103FA06F6314300F00046B6F16D
:100FB000004F02D11B4EF16101E01A4E7160F0BD8D
:100FC00030B500228B071C0F0F2303FA04F2154BD8
:100FD00008338C1053F824309343124C08348D108E
:100FE00044F8253023468C1053F824308C07240F06
:100FF00000FA04F423430B4C08348D1044F82530D8
:1010000030BD0A490860704700080140000C0140EB
:10101000001001400014014000180140001C014074
:10102000002001400000014000002042DC0020427E
:10103000DD48006840F00100DB4908600846406870
:10104000DA490840D849486008460068D84908404D
:10105000D54908600846006820F4802008600846EA
:10106000406820F4FE0048604FF41F00886070471D
:10107000CD49096821F48031CB4A116011460968D5
:1010800021F480211160B0F5803F03D0B0F5802FAE
:101090000ED106E0C449096841F48031C24A1160AA
:1010A00007E0C149096841F4A021BF4A116000E08E
:1010B00000BF00BF704710B501460022002300208A
:1010C0004A11012A02D1B84C236806E0022A02D153
:1010D000B54C236A01E0B44C636A01F01F0201249D
:1010E00094401C4201D0012000E0002010BD38B522
:1010F000002000900024002500BF3120FFF7DBFF17
:1011000005460098401C00900098B0F5A06F01D0F3
:10111000002DF2D03120FFF7CEFF08B1012400E00E
:101120000024204638BD014600209F4A106820F068
:10113000F80040EAC100106070479E49086070479F
:1011400002460020984B586820F47C1042EA0103C4
:101150001843954B5860704796490866704701469A
:101160000020914A506820F0030008435060704707
:101170008D48406800F00C007047014600208A4A04
:10118000506820F0F000084350607047014600208E
:10119000854A506820F4E06008435060704701467B
:1011A0000020814A506820F4605040EAC10050603D
:1011B000704729B17C4A527A02437B4B5A7204E051
:1011C000794A527A8243784B5A7270477A4908605A
:1011D000704701460020744A506820F4404008439C
:1011E000506070470021754A11706F4A82F82010D4
:1011F000012802D0042808D103E001216F4A1170B0
:1012000004E005216D4A117000E000BF00BF704787
:101210006B49086070476449096A0143624A116278
:101220007047674944390860704730B50021002293
:10123000002400235C4D6D6805F00C0121B10429E8
:1012400005D0082923D105E05E4D056022E05D4D03
:1012500005601FE0544D6D6805F47012524D6D68C5
:1012600005F48034022505EB92421CB9564D5543D6
:1012700005600BE04C4D6D6815F4003F03D0524DF6
:101280005543056002E04F4D5543056002E04D4D6A
:10129000056000BF00BF444D6D6805F0F00109090D
:1012A0004A4D6B5C0568DD4045603F4D6D6805F457
:1012B000E061090A454D6B5C4568DD4085603A4D4B
:1012C0006D6805F46051C90A404D6B5C4568DD40AE
:1012D000C560354D6D6805F44041890B3C4D6B5C34
:1012E000C568B5FBF3F5056130BD29B12E4A5269D9
:1012F00002432D4B5A6104E02B4A526982432A4B28
:101300005A61704729B1284A92690243264B9A6173
:1013100004E0254A92698243234B9A61704729B1C0
:10132000214AD2690243204BDA6104E01E4AD269A5
:1013300082431D4BDA61704729B11B4AD2680243D0
:10134000194BDA6004E0184AD2688243164BDA601F
:10135000704729B1144A12690243134B1A6104E021
:10136000114A12698243104B1A617047144940397F
:10137000086070470F49C86470470B49C8717047CF
:101380000948406A40F0807007494862704701464A
:101390000020054A92680A4201D0012000E00020A6
:1013A0007047014988727047001002400000FFF842
:1013B000FFFFF6FE00004242D800424220100240E9
:1013C0008004424200127A0000093D00B002002071
:1013D000C002002010B50446BE48844208D1012155
:1013E0008014FFF7A9FF0021A014FFF7A5FF16E066
:1013F000B948844208D101210014FFF7AAFF002157
:101400002014FFF7A6FF0AE0B448844207D1012167
:10141000C013FFF79EFF0021E013FFF79AFF10BDF6
:1014200010B50022028802F441520B884C882343F5
:101430008C882343CC8823430C8923434C89234342
:101440008C892343CC8923431A430280838B4FF238
:10145000FF74234083830B8A038210BD2DE9F04F74
:1014600085B005460C464FF0000902274FF00008F2
:101470004FF0010B0026B246A88B4FF24001084006
:10148000A88302202884B5F81C90A068022801D106
:1014900000BF38E0A08810B94FF0010B01E04FF019
:1014A000020B8D48854200D100E000BF6846FFF77F
:1014B000BCFEDDF800A0E088B0F5007F0AD14FEA5D
:1014C0001A2000EB80004000A168B0FBF1F0401D45
:1014D00086B20BE04FEA4B10BAFBF0F000EB800055
:1014E0004000A168B0FBF1F0401D86B20A20B6FBB7
:1014F000F0F606F00108A6EB0800C0F34F074FF620
:10150000FF7000EA0828022F01DBFF2F02DD02270F
:101510004FF00008E08840EA080038432884A0889B
:10152000A1890843618808432188084340F400608A
:1015300040EA0909A5F81C9005B0BDE8F08F00212C
:10154000018041808180C180018141818181C1818F
:101550000721018270470021018041808180C18084
:101560000221816000218181704721B1028842F00F
:101570004002028004E002884FF6BF731A400280E6
:10158000704721B1828B42F48062828304E0828BB7
:101590004FF6FF331A408283704730B50024002392
:1015A0000C110125A540ABB21AB185881D43858079
:1015B00002E085889D43858030BD1AB183880B4346
:1015C000838002E083888B438380704781817047EA
:1015D000014688897047A1F57E42FF3A04D002880F
:1015E00042F48072028004E002884FF6FF631A40E2
:1015F0000280704721B1828842F00402828004E0B8
:1016000082884FF6FB731A408280704702884FF23F
:10161000FF731A40028002880A43028070470188E3
:1016200041F480510180704721B1028842F4005298
:10163000028004E002884DF6FF731A400280704772
:1016400002460020012901D0108B00E0908A7047EB
:101650000146088A7047B1F5804F04D1028842F4F0
:101660008042028004E002884BF6FF731A40028039
:1016700070470246002013890B4201D0012000E090
:1016800000207047CA4302817047F0B5024600202F
:1016900000240023002501F00F070126BE40B4B24C
:1016A0000B1101269E40B3B2968806EA03051689FF
:1016B000264202D00DB1012000E00020F0BD10B59F
:1016C000002201F00F040123A3409AB2D343038107
:1016D00010BD00000030014000380040003C0040D8
:1016E00008B501210820FFF70DFE4FF48070ADF81A
:1016F000000003208DF8020010208DF803006946D9
:101700000148FFF749FB08BD000C014030B51E48F9
:1017100000681E4AB0FBF2F1B1F1807F01D30120D5
:101720001BE021F07F40401E4FF0E0225061501737
:101730000F22002806DA1301154C00F00F052D1FAB
:10174000635502E01301134C235400BF00204FF0F7
:10175000E022906107201061002008B100BFFEE781
:1017600030BD01B50C490098086000BF0A48006808
:101770000028FBD108BD0848006820B10648006871
:10178000401E0549086070479C02002040420F003F
:1017900018ED00E000E400E0C40200201FB50121C4
:1017A0004020FFF7AFFD01210846FFF7ABFD1F20EA
:1017B000ADF80C0003208DF80E0028208DF80F00E6
:1017C00003A95548FFF7E8FA4FF4C060FFF788F91E
:1017D00006208DF8080001208DF8090000208DF802
:1017E0000A0001208DF80B0002A8FFF77EF9072000
:1017F0008DF8080001208DF809008DF80A008DF899
:101800000B0002A8FFF771F908208DF808000120ED
:101810008DF8090002208DF80A0001208DF80B00D8
:1018200002A8FFF762F909208DF8080002208DF860
:10183000090000208DF80A0001208DF80B0002A895
:10184000FFF753F90A208DF8080002208DF80900EF
:1018500001208DF80A008DF80B0002A8FFF745F96A
:1018600000210420FFF7ACFB0120009000208DF840
:1018700004000C208DF8050001208DF80600684654
:10188000FFF7AAF901210420FFF79AFB022000903C
:1018900000208DF804000C208DF8050001208DF843
:1018A00006006846FFF798F902210420FFF788FB3D
:1018B0000420009000208DF804000C208DF8050015
:1018C00001208DF806006846FFF786F90321042001
:1018D000FFF776FB0820009000208DF804000C2014
:1018E0008DF8050001208DF806006846FFF774F9B1
:1018F00004210846FFF764FB1020009000208DF8BB
:1019000004000C208DF8050001208DF806006846C3
:10191000FFF762F91FBD00000018014000B587B055
:1019200001210820FFF7EEFC01214020FFF7EAFC2F
:101930002020ADF8180003208DF81A0010208DF833
:101940001B0006A92848FFF727FA06A92748FFF732
:1019500023FA01210520FFF7D5FC01210803FFF739
:10196000D1FC0820ADF8180003208DF81A001020D3
:101970008DF81B0006A91E48FFF70EFAF020ADF8FF
:10198000180003208DF81A0018208DF81B0006A9F6
:101990001748FFF701FA0020ADF804002820ADF841
:1019A00010000020ADF808004FF48270ADF806007A
:1019B0000020ADF812000220ADF80A000120ADF8B9
:1019C0000C004002ADF80E000720ADF814000948E5
:1019D000FFF700FD01A90748FFF722FD0121054897
:1019E000FFF7C3FD07B000BD000C01400018014027
:1019F000000801400030014070477047704775464D
:101A000000F028F8AE4605006946534620F007006E
:101A1000854618B020B5FEF707FCBDE820404FF022
:101A200000064FF000074FF000084FF0000B21F0C8
:101A30000701AC46ACE8C009ACE8C009ACE8C00995
:101A4000ACE8C0098D4670470446AFF300802046DD
:101A5000FEF7D5FB00487047C80200200149182056
:101A6000ABBEFEE726000200704700008C1A00089B
:101A700000000020C80200006C010008081B0008DC
:101A8000C802002060060000C80100083301012CD4
:101A900001647D07E12009EE84E42EEAEEA8E83631
:101AA0000E0A0A0A0E2A0201312D0E020E08101922
:101AB000083A02184B060F184A0810190839306AFC
:101AC0000E305A0A103A0A2027EFEF83EFEFEF3A71
:101AD0007E01111CFF81BD01180981FFFFFFC3DBDF
:101AE000DBC3071DFFFFE7E705316208C90701FFF8
:101AF00001EC84A24A0468090102030406070809EC
:081B00000C69104502040608FF
:0400000508000131BD
:00000001FF
